:020000040800F2
:100000006007002089010008B103000851030008BF
:10001000AD03000831020008BF0B0008000000001B
:10002000000000000000000000000000C107000800
:10003000350200080000000039060008D508000855
:10004000A3010008A3010008A3010008A301000800
:10005000A3010008A3010008A3010008A3010008F0
:10006000A3010008A3010008A3010008A3010008E0
:10007000A3010008A3010008A3010008A3010008D0
:10008000A3010008A3010008A3010008A3010008C0
:10009000A3010008A3010008A3010008A3010008B0
:1000A000A3010008A3010008A3010008A3010008A0
:1000B000A3010008A3010008A3010008A301000890
:1000C000A3010008A3010008A3010008A301000880
:1000D000A3010008D90A0008A3010008A301000831
:1000E000A3010008A3010008A301000800F002F822
:1000F00000F03AF80AA090E8000C82448344AAF188
:100100000107DA4501D100F02FF8AFF2090EBAE885
:100110000F0013F0010F18BFFB1A43F0010318473B
:10012000600C0000800C0000103A24BF78C878C131
:10013000FAD8520724BF30C830C144BF04680C60ED
:10014000704700000023002400250026103A28BF35
:1001500078C1FBD8520728BF30C148BF0B60704739
:100160001FB51FBD10B510BD00F033F81146FFF7E5
:10017000F7FF00F071FD00F051F803B4FFF7F2FF54
:1001800003BC00F01EFD00000948804709480047F5
:10019000FEE7FEE7FEE7FEE7FEE7FEE7FEE7FEE737
:1001A000FEE7FEE704480549054A064B7047000094
:1001B000D9080008ED000008600100206007002059
:1001C000600300206003002070477047704770474D
:1001D0007047754600F028F8AE460500694653465C
:1001E00020F00700854618B020B5FFF7DBFFBDE81B
:1001F00020404FF000064FF000074FF000084FF08E
:10020000000B21F00701AC46ACE8C009ACE8C0091E
:10021000ACE8C009ACE8C0098D4670470446AFF3AE
:1002200000802046FFF7A9FF00487047FC0000202F
:1002300000BFFEE770472DE9F04102460025002689
:10024000002000230024002791F803C00CF00F05C4
:1002500091F803C00CF0100CBCF1000F03D091F822
:1002600002C04CEA050591F800C0BCF1000F31D086
:10027000146800202BE04FF0010C0CFA00F3B1F8E9
:1002800000C00CEA03069E4220D183004FF00F0C01
:100290000CFA03F7BC4305FA03FC4CEA040491F89A
:1002A00003C0BCF1280F06D14FF0010C0CFA00FC82
:1002B000C2F814C00AE091F803C0BCF1480F05D1A0
:1002C0004FF0010C0CFA00FCC2F810C0401C0828CA
:1002D000D1D31460B1F800C0BCF1FF0F34DD546815
:1002E00000202EE000F1080C4FF0010808FA0CF392
:1002F000B1F800C00CEA03069E4221D183004FF002
:100300000F0C0CFA03F7BC4305FA03FC4CEA040497
:1003100091F803C0BCF1280F05D100F1080C08FAD0
:100320000CF8C2F8148091F803C0BCF1480F07D153
:1003300000F1080C4FF0010808FA0CF8C2F8108020
:10034000401C0828CED35460BDE8F081016170479D
:1003500000BFFEE708B50121202000F06FF9012160
:10036000082000F06BF90420ADF8000010208DF893
:10037000030003208DF8020069460A48FFF75BFF7F
:1003800004210848FFF7E2FF4FF48050ADF8000069
:1003900069460548FFF74FFF4FF480510248FFF7C9
:1003A000D5FF08BD00140140000C014000BFFEE76E
:1003B000704700001CB511A103C9CDE90001102050
:1003C00000F0B2F905226946302000F0F5F8052268
:1003D0006946102000F09EF8002406E01DF8040095
:1003E000A52800D003E0601CC4B2052CF6DB00BFDA
:1003F000052C01D001201CBD0020FCE7A5A5A5A56A
:10040000A500000000B587B00121142000F016F906
:100410004FF40570ADF8180010208DF81B00032074
:100420008DF81A0006A92148FFF705FF0820ADF84E
:10043000180048208DF81B0003208DF81A0006A92B
:100440001A48FFF7F8FE1E211848FFF77FFF00F05B
:1004500005F90021164800F07BF90020ADF80400F2
:100460004FF48270ADF806000020ADF80800ADF83A
:100470000A00ADF80C004FF40070ADF80E00382003
:10048000ADF810000020ADF812000720ADF8140000
:1004900001A9074800F076F900200649086001200C
:1004A0000549C1F8A40107B000BD000000080140E3
:1004B00000300140900121420000214210B500208F
:1004C00011490860052211492A2000F075F8012120
:1004D000212000F08FF80121222000F08BF8282144
:1004E000252000F087F82021312000F083F80F212B
:1004F000262000F07FF80F21202000F07BF801205B
:100500000349C1F8900110BD90012142790D000806
:10051000000021422DE9F04107460D461646002015
:100520000A490860384600F0D5F88046002405E006
:10053000FF2000F0CFF82855601CC4B2B442F7DBAE
:100540000120024908604046BDE8F081A401214233
:1005500070B50446002007490860204600F0BAF84C
:10056000FF2000F0B7F8054601200349C1F8A401B7
:10057000284670BDA40121420000214270B5044606
:10058000102000F0D1F80720FFF7E2FF05462946CA
:10059000272000F02FF805F0400050B1202221461E
:1005A0006120FFF7B7FFFF21E22000F023F80020D1
:1005B00070BD0120FCE700002DE9F04107460C4624
:1005C000154600200A490860384600F083F8804646
:1005D000002605E014F8010B00F07CF8701CC6B290
:1005E000AE42F7DB0120024908604046BDE8F081D9
:1005F000A401214270B505460C4600200749086059
:10060000284600F067F80646204600F063F801200F
:100610000349C1F8A401304670BD0000A401214285
:100620000000214202490143024A11607047000064
:100630000000FA050CED00E07047000029B1064A01
:1006400092690243044B9A6104E0034A926982432F
:10065000014B9A61704700000010024008B501216B
:1006600041F20400FFF7EAFFE020ADF80000182097
:100670008DF8030003208DF8020069461248FFF749
:10068000DAFDE0211048FFF761FE00200F490880E5
:100690004FF482704880002088800220C8800120AA
:1006A000088140024881382088810020C8810720C5
:1006B0000882074800F066F80121054800F048F874
:1006C000FF2000F007F808BD00080140E800002006
:1006D0000030014070B50546002405E0601CC4B23E
:1006E000C82C01DD002070BD02210E4800F03CF84E
:1006F0000028F3D029460B4800F042F8002405E01A
:10070000601CC4B2C82C01DD0020ECE701210548C3
:1007100000F02AF80028F3D0024800F02EF8C0B20A
:10072000E1E7000000300140084909884FF6C77230
:100730001140064A11801146098801431180114673
:10074000098841F0400111807047000000300140ED
:1007500021B1028842F04002028004E002884FF694
:10076000BF731A40028070470246002013890B4075
:100770000BB1012000E000207047014688897047D6
:100780008181704710B50022028802F441520B8823
:100790004C8823438C882343CC8823430C892343F0
:1007A0004C8923438C892343CC8923431A430280F9
:1007B000838B4FF2FF74234083830B8A038210BD27
:1007C000704710B500F002F810BD00000CB5002015
:1007D000019000903348006840F48030314908604F
:1007E00000BF3048006800F4003000900198401CC1
:1007F0000190009818B90198B0F5A06FF1D129487F
:10080000006800F4003010B10120009001E00020E9
:1008100000900098012843D12348006840F0100060
:10082000214908600846006820F003000860084677
:10083000006840F0020008601A48406819494860A2
:100840000846406848600846406840F48060486058
:100850000846406820F47C1048600846406840F430
:10086000E81048600846006840F08070086000BFEB
:100870000C48006800F000700028F9D00948406872
:1008800020F00300074948600846406840F0020035
:10089000486000BF0348406800F00C000828F9D108
:1008A0000CBD00000010024000200240042808D1C6
:1008B0004FF0E021096941F004014FF0E02211619D
:1008C00007E04FF0E021096921F004014FF0E02238
:1008D000116170477047000010B51348006840F080
:1008E00001001149086008464068104908400E4957
:1008F0004860084600680E4908400B4908600846F1
:10090000006820F4802008600846406820F4FE005B
:1009100048604FF41F008860FFF753FF4FF00060FE
:100920000449086010BD0000001002400000FFF8FC
:10093000FFFFF6FE08ED00E021B1028842F08002E0
:10094000028004E002884FF67F731A4002807047ED
:1009500021B1028842F00102028004E002884FF6D1
:10096000FE731A400280704731B1B0F8442042F45F
:100970000042A0F8442005E0B0F84420C2F30E0283
:10098000A0F844207047000070B500240022002326
:10099000058C4FF6FE7635400584028C8388048BE7
:1009A0004FF68F752C40B51E2C400D882C43751EBC
:1009B0002A400D892A434D882A43144DA8420BD062
:1009C000134DA84208D0134DA84205D0124DA8429D
:1009D00002D0124DA84213D14FF6F7752A404D8927
:1009E0002A434FF6FB752A408D882A434FF6FF6550
:1009F0002B404FF6FF552B408D892B43CD892B4340
:100A000083800483CD888586028470BD002C0140DC
:100A100000340140004001400044014000480140D2
:100A20000A460021018B4FF6F773194011430183E9
:100A300070470000002202881D4B98420ED01D4BCB
:100A400098420BD0B0F1804F08D01B4B984205D094
:100A50001A4B984202D01A4B984204D14FF68F732A
:100A60001A404B881A43174B984207D0164B9842AE
:100A700004D04FF6FF431A40CB881A4302808B887C
:100A800083850B8803850A4B98420BD0094B98420B
:100A900008D00E4B984205D00D4B984202D00D4B1A
:100AA000984201D10B7A03860123838270470000AC
:100AB000002C0140003401400004004000080040C8
:100AC000000C0040001000400014004000400140B5
:100AD000004401400048014010B540F225511D4836
:100AE00000F03EF810B31B4800F064F8C4B21A4896
:100AF000008800F40040C8B91748008800F480401E
:100B000060B10A2C03D000201349088020E012486D
:100B1000008840F400401049088019E00D2C06D1EF
:100B20000D48008840F480400B49088010E00A48D6
:100B30000088C0F30D0009490C5407480088401C88
:100B40000549088008460088C72801DD0020088084
:100B500010BD0000003801401800002020000020D7
:100B600070B50246002400230025002040F66A16D6
:100B7000B14200D100BFC1F3421501F01F030126AD
:100B800006FA03F3012D02D19689334006E0022DC7
:100B900002D1168A334001E0968A33400C120126B6
:100BA00006FA04F41688344013B10CB1012000E0B9
:100BB000002070BD01468888C0F30800704700BF60
:100BC000FEE7014600BF704710B56FF00400FFF765
:100BD0006DFE0A4800680A49B0FBF1F00949087047
:100BE0000846007800EB4001C1EBC0104FF6FF71E2
:100BF00001EAC0000449088010BD00000000002088
:100C000000127A001A0000201C0000200146114A40
:100C100012884A434FF0E0235A6100229A611A4633
:100C2000126942F001021A6100BF4FF0E022106920
:100C300000F001021AB100F48032002AF5D04FF022
:100C4000E022126922F001024FF0E0231A61002233
:100C50009A6170471C0000208AB0FFF7B5FF4FF47F
:100C6000A060FFF7DFFCFFF775FBFFF7CBFB012070
:100C70001849086040F2833140F23F6000F02EF8DE
:100C80000CE0012013490860C820FFF7BFFF0020D7
:100C90001149C1F88801C820FFF7B8FFFFF78AFBA8
:100CA0000028EED10B490860FFF708FC10E001A80E
:100CB000FFF764FC60B900208DF824000548006847
:100CC000C0430549C1F888014FF49670FFF79EFFB5
:100CD000EDE70000888122420080224230B589B0D1
:100CE00005460C460121C802FFF7A8FC012104209B
:100CF000FFF7A4FC4FF48070ADF8200018208DF8A9
:100D0000230003208DF8220008A91848FFF793FA62
:100D1000ADF81850ADF814400020ADF81A00ADF849
:100D2000160005A91248FFF785FE6020ADF8040003
:100D30000120ADF806000020ADF80A00ADF80C0067
:100D400001A90B48FFF720FE01210948FFF70CFE1F
:100D500008210748FFF764FE01210548FFF7ECFD75
:100D600001210348FFF7F4FD09B030BD0008014040
:100D7000002C0140344310101334431010130000B2
:100D8000A00D00080000002020000000280100083D
:100D9000C00D0008200000204007000044010008AA
:100DA00000A24A0400000000000000000102030449
:100DB0000607080900000000000000000000000015
:04000005080000ED02
:00000001FF
